{
  "contractName": "Item",
  "abi": [
    {
      "inputs": [
        {
          "internalType": "contract ItemManager",
          "name": "_parentContract",
          "type": "address"
        },
        {
          "internalType": "uint256",
          "name": "_priceInWei",
          "type": "uint256"
        },
        {
          "internalType": "uint256",
          "name": "_index",
          "type": "uint256"
        }
      ],
      "stateMutability": "nonpayable",
      "type": "constructor"
    },
    {
      "inputs": [],
      "name": "index",
      "outputs": [
        {
          "internalType": "uint256",
          "name": "",
          "type": "uint256"
        }
      ],
      "stateMutability": "view",
      "type": "function"
    },
    {
      "inputs": [],
      "name": "paidWei",
      "outputs": [
        {
          "internalType": "uint256",
          "name": "",
          "type": "uint256"
        }
      ],
      "stateMutability": "view",
      "type": "function"
    },
    {
      "inputs": [],
      "name": "priceInWei",
      "outputs": [
        {
          "internalType": "uint256",
          "name": "",
          "type": "uint256"
        }
      ],
      "stateMutability": "view",
      "type": "function"
    },
    {
      "stateMutability": "payable",
      "type": "receive"
    }
  ],
  "bytecode": "0x608060405234801561001057600080fd5b5060405161076a38038061076a833981810160405281019061003291906100b3565b816000819055508060028190555082600360006101000a81548173ffffffffffffffffffffffffffffffffffffffff021916908373ffffffffffffffffffffffffffffffffffffffff160217905550505050610187565b60008151905061009881610159565b92915050565b6000815190506100ad81610170565b92915050565b6000806000606084860312156100cc576100cb610154565b5b60006100da86828701610089565b93505060206100eb8682870161009e565b92505060406100fc8682870161009e565b9150509250925092565b60006101118261012a565b9050919050565b600061012382610106565b9050919050565b600073ffffffffffffffffffffffffffffffffffffffff82169050919050565b6000819050919050565b600080fd5b61016281610118565b811461016d57600080fd5b50565b6101798161014a565b811461018457600080fd5b50565b6105d4806101966000396000f3fe6080604052600436106100385760003560e01c80632986c0e5146102465780633c8da5881461027157806383d12eef1461029c57610241565b36610241576000543414610081576040517f08c379a0000000000000000000000000000000000000000000000000000000008152600401610078906103d9565b60405180910390fd5b6000600154146100c6576040517f08c379a00000000000000000000000000000000000000000000000000000000081526004016100bd90610399565b60405180910390fd5b34600160008282546100d8919061043b565b925050819055506000600360009054906101000a900473ffffffffffffffffffffffffffffffffffffffff1673ffffffffffffffffffffffffffffffffffffffff163460025460405160240161012e91906103f9565b6040516020818303038152906040527f800fb83f000000000000000000000000000000000000000000000000000000007bffffffffffffffffffffffffffffffffffffffffffffffffffffffff19166020820180517bffffffffffffffffffffffffffffffffffffffffffffffffffffffff83818316178352505050506040516101b89190610382565b60006040518083038185875af1925050503d80600081146101f5576040519150601f19603f3d011682016040523d82523d6000602084013e6101fa565b606091505b505090508061023e576040517f08c379a0000000000000000000000000000000000000000000000000000000008152600401610235906103b9565b60405180910390fd5b50005b600080fd5b34801561025257600080fd5b5061025b6102c7565b60405161026891906103f9565b60405180910390f35b34801561027d57600080fd5b506102866102cd565b60405161029391906103f9565b60405180910390f35b3480156102a857600080fd5b506102b16102d3565b6040516102be91906103f9565b60405180910390f35b60025481565b60005481565b60015481565b60006102e482610414565b6102ee818561041f565b93506102fe81856020860161049b565b80840191505092915050565b600061031760158361042a565b9150610322826104fd565b602082019050919050565b600061033a60158361042a565b915061034582610526565b602082019050919050565b600061035d60228361042a565b91506103688261054f565b604082019050919050565b61037c81610491565b82525050565b600061038e82846102d9565b915081905092915050565b600060208201905081810360008301526103b28161030a565b9050919050565b600060208201905081810360008301526103d28161032d565b9050919050565b600060208201905081810360008301526103f281610350565b9050919050565b600060208201905061040e6000830184610373565b92915050565b600081519050919050565b600081905092915050565b600082825260208201905092915050565b600061044682610491565b915061045183610491565b9250827fffffffffffffffffffffffffffffffffffffffffffffffffffffffffffffffff03821115610486576104856104ce565b5b828201905092915050565b6000819050919050565b60005b838110156104b957808201518184015260208101905061049e565b838111156104c8576000848401525b50505050565b7f4e487b7100000000000000000000000000000000000000000000000000000000600052601160045260246000fd5b7f4974656d20697320616c72656164792070616964210000000000000000000000600082015250565b7f44656c697665727920646964206e6f7420776f726b0000000000000000000000600082015250565b7f576520646f206e6f7420737570706f7274207061727469616c207061796d656e60008201527f747300000000000000000000000000000000000000000000000000000000000060208201525056fea26469706673582212203ef785e5d5fd2b957b526912d5dd542127b7cf4d4f587b9e5a6af4cdbf7f156264736f6c63430008070033",
  "immutableReferences": {},
  "source": "pragma solidity ^0.8.7;\n\nimport \"./ItemManager.sol\";\n\ncontract Item {\n    uint public priceInWei;\n    uint public paidWei;\n    uint public index;\n    \n    ItemManager parentContract;\n    \n    constructor(ItemManager _parentContract, uint _priceInWei, uint _index) public {\n        priceInWei = _priceInWei;\n        index = _index;\n        parentContract = _parentContract;\n    }\n    \n    receive() external payable {\n        require(msg.value == priceInWei, \"We do not support partial payments\");\n        require(paidWei == 0, \"Item is already paid!\");\n        paidWei += msg.value;\n        (bool success, ) = address(parentContract).call{value:msg.value}(abi.encodeWithSignature(\"triggerPayment(uint256)\", index));\n        require(success, \"Delivery did not work\");\n    }\n}",
  "sourcePath": "/Users/jeromepangelinan/s06-eventtrigger/contracts/Item.sol",
  "compiler": {
    "name": "solc",
    "version": "0.8.7+commit.e28d00a7.Emscripten.clang"
  },
  "schemaVersion": "3.4.3",
  "updatedAt": "2021-09-05T05:04:34.518Z",
  "devdoc": {
    "kind": "dev",
    "methods": {},
    "version": 1
  },
  "userdoc": {
    "kind": "user",
    "methods": {},
    "version": 1
  }
}